{
  "contractName": "Onidex",
  "abi": [
    {
      "inputs": [],
      "stateMutability": "nonpayable",
      "type": "constructor"
    },
    {
      "anonymous": false,
      "inputs": [
        {
          "indexed": true,
          "internalType": "address",
          "name": "owner",
          "type": "address"
        },
        {
          "indexed": true,
          "internalType": "address",
          "name": "approved",
          "type": "address"
        },
        {
          "indexed": true,
          "internalType": "uint256",
          "name": "tokenId",
          "type": "uint256"
        }
      ],
      "name": "Approval",
      "type": "event"
    },
    {
      "anonymous": false,
      "inputs": [
        {
          "indexed": true,
          "internalType": "address",
          "name": "owner",
          "type": "address"
        },
        {
          "indexed": true,
          "internalType": "address",
          "name": "operator",
          "type": "address"
        },
        {
          "indexed": false,
          "internalType": "bool",
          "name": "approved",
          "type": "bool"
        }
      ],
      "name": "ApprovalForAll",
      "type": "event"
    },
    {
      "anonymous": false,
      "inputs": [
        {
          "indexed": true,
          "internalType": "address",
          "name": "from",
          "type": "address"
        },
        {
          "indexed": true,
          "internalType": "address",
          "name": "to",
          "type": "address"
        },
        {
          "indexed": true,
          "internalType": "uint256",
          "name": "tokenId",
          "type": "uint256"
        }
      ],
      "name": "Transfer",
      "type": "event"
    },
    {
      "inputs": [
        {
          "internalType": "uint256",
          "name": "",
          "type": "uint256"
        }
      ],
      "name": "allNFTs",
      "outputs": [
        {
          "internalType": "uint256",
          "name": "tokenId",
          "type": "uint256"
        },
        {
          "internalType": "string",
          "name": "tokenName",
          "type": "string"
        },
        {
          "internalType": "string",
          "name": "tokenURI",
          "type": "string"
        },
        {
          "internalType": "address payable",
          "name": "mintedBy",
          "type": "address"
        },
        {
          "internalType": "address payable",
          "name": "currentOwner",
          "type": "address"
        },
        {
          "internalType": "address payable",
          "name": "previousOwner",
          "type": "address"
        },
        {
          "internalType": "uint256",
          "name": "price",
          "type": "uint256"
        },
        {
          "internalType": "uint256",
          "name": "numberOfTransfers",
          "type": "uint256"
        },
        {
          "internalType": "bool",
          "name": "forSale",
          "type": "bool"
        }
      ],
      "stateMutability": "view",
      "type": "function",
      "constant": true
    },
    {
      "inputs": [
        {
          "internalType": "address",
          "name": "to",
          "type": "address"
        },
        {
          "internalType": "uint256",
          "name": "tokenId",
          "type": "uint256"
        }
      ],
      "name": "approve",
      "outputs": [],
      "stateMutability": "nonpayable",
      "type": "function"
    },
    {
      "inputs": [
        {
          "internalType": "address",
          "name": "owner",
          "type": "address"
        }
      ],
      "name": "balanceOf",
      "outputs": [
        {
          "internalType": "uint256",
          "name": "",
          "type": "uint256"
        }
      ],
      "stateMutability": "view",
      "type": "function",
      "constant": true
    },
    {
      "inputs": [],
      "name": "baseURI",
      "outputs": [
        {
          "internalType": "string",
          "name": "",
          "type": "string"
        }
      ],
      "stateMutability": "view",
      "type": "function",
      "constant": true
    },
    {
      "inputs": [],
      "name": "collectionName",
      "outputs": [
        {
          "internalType": "string",
          "name": "",
          "type": "string"
        }
      ],
      "stateMutability": "view",
      "type": "function",
      "constant": true
    },
    {
      "inputs": [],
      "name": "collectionNameSymbol",
      "outputs": [
        {
          "internalType": "string",
          "name": "",
          "type": "string"
        }
      ],
      "stateMutability": "view",
      "type": "function",
      "constant": true
    },
    {
      "inputs": [
        {
          "internalType": "string",
          "name": "",
          "type": "string"
        }
      ],
      "name": "colorExists",
      "outputs": [
        {
          "internalType": "bool",
          "name": "",
          "type": "bool"
        }
      ],
      "stateMutability": "view",
      "type": "function",
      "constant": true
    },
    {
      "inputs": [
        {
          "internalType": "uint256",
          "name": "tokenId",
          "type": "uint256"
        }
      ],
      "name": "getApproved",
      "outputs": [
        {
          "internalType": "address",
          "name": "",
          "type": "address"
        }
      ],
      "stateMutability": "view",
      "type": "function",
      "constant": true
    },
    {
      "inputs": [
        {
          "internalType": "address",
          "name": "owner",
          "type": "address"
        },
        {
          "internalType": "address",
          "name": "operator",
          "type": "address"
        }
      ],
      "name": "isApprovedForAll",
      "outputs": [
        {
          "internalType": "bool",
          "name": "",
          "type": "bool"
        }
      ],
      "stateMutability": "view",
      "type": "function",
      "constant": true
    },
    {
      "inputs": [],
      "name": "name",
      "outputs": [
        {
          "internalType": "string",
          "name": "",
          "type": "string"
        }
      ],
      "stateMutability": "view",
      "type": "function",
      "constant": true
    },
    {
      "inputs": [],
      "name": "nftCounter",
      "outputs": [
        {
          "internalType": "uint256",
          "name": "",
          "type": "uint256"
        }
      ],
      "stateMutability": "view",
      "type": "function",
      "constant": true
    },
    {
      "inputs": [
        {
          "internalType": "uint256",
          "name": "tokenId",
          "type": "uint256"
        }
      ],
      "name": "ownerOf",
      "outputs": [
        {
          "internalType": "address",
          "name": "",
          "type": "address"
        }
      ],
      "stateMutability": "view",
      "type": "function",
      "constant": true
    },
    {
      "inputs": [
        {
          "internalType": "address",
          "name": "from",
          "type": "address"
        },
        {
          "internalType": "address",
          "name": "to",
          "type": "address"
        },
        {
          "internalType": "uint256",
          "name": "tokenId",
          "type": "uint256"
        }
      ],
      "name": "safeTransferFrom",
      "outputs": [],
      "stateMutability": "nonpayable",
      "type": "function"
    },
    {
      "inputs": [
        {
          "internalType": "address",
          "name": "from",
          "type": "address"
        },
        {
          "internalType": "address",
          "name": "to",
          "type": "address"
        },
        {
          "internalType": "uint256",
          "name": "tokenId",
          "type": "uint256"
        },
        {
          "internalType": "bytes",
          "name": "_data",
          "type": "bytes"
        }
      ],
      "name": "safeTransferFrom",
      "outputs": [],
      "stateMutability": "nonpayable",
      "type": "function"
    },
    {
      "inputs": [
        {
          "internalType": "address",
          "name": "operator",
          "type": "address"
        },
        {
          "internalType": "bool",
          "name": "approved",
          "type": "bool"
        }
      ],
      "name": "setApprovalForAll",
      "outputs": [],
      "stateMutability": "nonpayable",
      "type": "function"
    },
    {
      "inputs": [
        {
          "internalType": "bytes4",
          "name": "interfaceId",
          "type": "bytes4"
        }
      ],
      "name": "supportsInterface",
      "outputs": [
        {
          "internalType": "bool",
          "name": "",
          "type": "bool"
        }
      ],
      "stateMutability": "view",
      "type": "function",
      "constant": true
    },
    {
      "inputs": [],
      "name": "symbol",
      "outputs": [
        {
          "internalType": "string",
          "name": "",
          "type": "string"
        }
      ],
      "stateMutability": "view",
      "type": "function",
      "constant": true
    },
    {
      "inputs": [
        {
          "internalType": "uint256",
          "name": "index",
          "type": "uint256"
        }
      ],
      "name": "tokenByIndex",
      "outputs": [
        {
          "internalType": "uint256",
          "name": "",
          "type": "uint256"
        }
      ],
      "stateMutability": "view",
      "type": "function",
      "constant": true
    },
    {
      "inputs": [
        {
          "internalType": "string",
          "name": "",
          "type": "string"
        }
      ],
      "name": "tokenNameExists",
      "outputs": [
        {
          "internalType": "bool",
          "name": "",
          "type": "bool"
        }
      ],
      "stateMutability": "view",
      "type": "function",
      "constant": true
    },
    {
      "inputs": [
        {
          "internalType": "address",
          "name": "owner",
          "type": "address"
        },
        {
          "internalType": "uint256",
          "name": "index",
          "type": "uint256"
        }
      ],
      "name": "tokenOfOwnerByIndex",
      "outputs": [
        {
          "internalType": "uint256",
          "name": "",
          "type": "uint256"
        }
      ],
      "stateMutability": "view",
      "type": "function",
      "constant": true
    },
    {
      "inputs": [
        {
          "internalType": "uint256",
          "name": "tokenId",
          "type": "uint256"
        }
      ],
      "name": "tokenURI",
      "outputs": [
        {
          "internalType": "string",
          "name": "",
          "type": "string"
        }
      ],
      "stateMutability": "view",
      "type": "function",
      "constant": true
    },
    {
      "inputs": [
        {
          "internalType": "string",
          "name": "",
          "type": "string"
        }
      ],
      "name": "tokenURIExists",
      "outputs": [
        {
          "internalType": "bool",
          "name": "",
          "type": "bool"
        }
      ],
      "stateMutability": "view",
      "type": "function",
      "constant": true
    },
    {
      "inputs": [],
      "name": "totalSupply",
      "outputs": [
        {
          "internalType": "uint256",
          "name": "",
          "type": "uint256"
        }
      ],
      "stateMutability": "view",
      "type": "function",
      "constant": true
    },
    {
      "inputs": [
        {
          "internalType": "address",
          "name": "from",
          "type": "address"
        },
        {
          "internalType": "address",
          "name": "to",
          "type": "address"
        },
        {
          "internalType": "uint256",
          "name": "tokenId",
          "type": "uint256"
        }
      ],
      "name": "transferFrom",
      "outputs": [],
      "stateMutability": "nonpayable",
      "type": "function"
    },
    {
      "inputs": [
        {
          "internalType": "string",
          "name": "_name",
          "type": "string"
        },
        {
          "internalType": "string",
          "name": "_tokenURI",
          "type": "string"
        },
        {
          "internalType": "uint256",
          "name": "_price",
          "type": "uint256"
        },
        {
          "internalType": "string[]",
          "name": "_colors",
          "type": "string[]"
        }
      ],
      "name": "mintNFT",
      "outputs": [],
      "stateMutability": "nonpayable",
      "type": "function"
    },
    {
      "inputs": [
        {
          "internalType": "uint256",
          "name": "_tokenId",
          "type": "uint256"
        }
      ],
      "name": "getTokenOwner",
      "outputs": [
        {
          "internalType": "address",
          "name": "",
          "type": "address"
        }
      ],
      "stateMutability": "view",
      "type": "function",
      "constant": true
    },
    {
      "inputs": [
        {
          "internalType": "uint256",
          "name": "_tokenId",
          "type": "uint256"
        }
      ],
      "name": "getTokenMetaData",
      "outputs": [
        {
          "internalType": "string",
          "name": "",
          "type": "string"
        }
      ],
      "stateMutability": "view",
      "type": "function",
      "constant": true
    },
    {
      "inputs": [],
      "name": "getNumberOfTokensMinted",
      "outputs": [
        {
          "internalType": "uint256",
          "name": "",
          "type": "uint256"
        }
      ],
      "stateMutability": "view",
      "type": "function",
      "constant": true
    },
    {
      "inputs": [
        {
          "internalType": "address",
          "name": "_owner",
          "type": "address"
        }
      ],
      "name": "getTotalNumberOfTokensOwnedByAnAddress",
      "outputs": [
        {
          "internalType": "uint256",
          "name": "",
          "type": "uint256"
        }
      ],
      "stateMutability": "view",
      "type": "function",
      "constant": true
    },
    {
      "inputs": [
        {
          "internalType": "uint256",
          "name": "_tokenId",
          "type": "uint256"
        }
      ],
      "name": "getTokenExists",
      "outputs": [
        {
          "internalType": "bool",
          "name": "",
          "type": "bool"
        }
      ],
      "stateMutability": "view",
      "type": "function",
      "constant": true
    },
    {
      "inputs": [
        {
          "internalType": "uint256",
          "name": "_tokenId",
          "type": "uint256"
        }
      ],
      "name": "buyToken",
      "outputs": [],
      "stateMutability": "payable",
      "type": "function",
      "payable": true
    },
    {
      "inputs": [
        {
          "internalType": "uint256",
          "name": "_tokenId",
          "type": "uint256"
        },
        {
          "internalType": "uint256",
          "name": "_newPrice",
          "type": "uint256"
        }
      ],
      "name": "changeTokenPrice",
      "outputs": [],
      "stateMutability": "nonpayable",
      "type": "function"
    },
    {
      "inputs": [
        {
          "internalType": "uint256",
          "name": "_tokenId",
          "type": "uint256"
        }
      ],
      "name": "toggleForSale",
      "outputs": [],
      "stateMutability": "nonpayable",
      "type": "function"
    }
  ],
  "bytecode": "0x60806040523480156200001157600080fd5b506040518060400160405280601181526020017f4f6e6964657820436f6c6c656374696f6e0000000000000000000000000000008152506040518060400160405280600381526020017f4f4e490000000000000000000000000000000000000000000000000000000000815250620000966301ffc9a760e01b6200016860201b60201c565b8160069080519060200190620000ae929190620003bd565b508060079080519060200190620000c7929190620003bd565b50620000e06380ac58cd60e01b6200016860201b60201c565b620000f8635b5e139f60e01b6200016860201b60201c565b6200011063780e9d6360e01b6200016860201b60201c565b5050620001226200027160201b60201c565b600a908051906020019062000139929190620003bd565b506200014a6200031760201b60201c565b600b908051906020019062000161929190620003bd565b5062000473565b63ffffffff60e01b817bffffffffffffffffffffffffffffffffffffffffffffffffffffffff1916141562000205576040517f08c379a000000000000000000000000000000000000000000000000000000000815260040180806020018281038252601c8152602001807f4552433136353a20696e76616c696420696e746572666163652069640000000081525060200191505060405180910390fd5b6001600080837bffffffffffffffffffffffffffffffffffffffffffffffffffffffff19167bffffffffffffffffffffffffffffffffffffffffffffffffffffffff1916815260200190815260200160002060006101000a81548160ff02191690831515021790555050565b606060068054600181600116156101000203166002900480601f0160208091040260200160405190810160405280929190818152602001828054600181600116156101000203166002900480156200030d5780601f10620002e1576101008083540402835291602001916200030d565b820191906000526020600020905b815481529060010190602001808311620002ef57829003601f168201915b5050505050905090565b606060078054600181600116156101000203166002900480601f016020809104026020016040519081016040528092919081815260200182805460018160011615610100020316600290048015620003b35780601f106200038757610100808354040283529160200191620003b3565b820191906000526020600020905b8154815290600101906020018083116200039557829003601f168201915b5050505050905090565b828054600181600116156101000203166002900490600052602060002090601f016020900481019282620003f5576000855562000441565b82601f106200041057805160ff191683800117855562000441565b8280016001018555821562000441579182015b828111156200044057825182559160200191906001019062000423565b5b50905062000450919062000454565b5090565b5b808211156200046f57600081600090555060010162000455565b5090565b614b4080620004836000396000f3fe6080604052600436106101ee5760003560e01c80636c0360eb1161010d578063a5cd761f116100a0578063ca05fca91161006f578063ca05fca9146107a0578063cc151f3a146107c9578063e5326ab1146107f4578063e574609e1461081f578063e985e9c51461084a576101ee565b8063a5cd761f146106b8578063b88d4fde146106f5578063bf162d671461071e578063c87b56dd14610763576101ee565b806395d89b41116100dc57806395d89b41146105fe578063a22cb46514610629578063a32018b914610652578063a46b1fac1461067b576101ee565b80636c0360eb1461052e5780636f9507f91461055957806370a08231146105845780638d44807c146105c1576101ee565b80632f745c59116101855780634f6ccce7116101545780634f6ccce71461044e57806362e8e8ac1461048b5780636352211e146104b457806367c623cf146104f1576101ee565b80632f745c591461036e57806342842e0e146103ab57806343902850146103d457806343d32ae714610411576101ee565b8063142687f3116101c1578063142687f3146102c157806318160ddd146102fe57806323b872dd146103295780632d296bf114610352576101ee565b806301ffc9a7146101f357806306fdde0314610230578063081812fc1461025b578063095ea7b314610298575b600080fd5b3480156101ff57600080fd5b5061021a600480360381019061021591906142c3565b610887565b6040516102279190614558565b60405180910390f35b34801561023c57600080fd5b506102456108ee565b6040516102529190614573565b60405180910390f35b34801561026757600080fd5b50610282600480360381019061027d91906143dd565b610990565b60405161028f919061453d565b60405180910390f35b3480156102a457600080fd5b506102bf60048036038101906102ba9190614287565b610a2b565b005b3480156102cd57600080fd5b506102e860048036038101906102e391906143dd565b610b6f565b6040516102f59190614558565b60405180910390f35b34801561030a57600080fd5b50610313610b86565b6040516103209190614595565b60405180910390f35b34801561033557600080fd5b50610350600480360381019061034b9190614181565b610b97565b005b61036c600480360381019061036791906143dd565b610c0d565b005b34801561037a57600080fd5b5061039560048036038101906103909190614287565b6111e6565b6040516103a29190614595565b60405180910390f35b3480156103b757600080fd5b506103d260048036038101906103cd9190614181565b611241565b005b3480156103e057600080fd5b506103fb60048036038101906103f6919061411c565b611261565b6040516104089190614595565b60405180910390f35b34801561041d57600080fd5b50610438600480360381019061043391906142ec565b611278565b6040516104459190614558565b60405180910390f35b34801561045a57600080fd5b50610475600480360381019061047091906143dd565b6112ae565b6040516104829190614595565b60405180910390f35b34801561049757600080fd5b506104b260048036038101906104ad9190614406565b6112d1565b005b3480156104c057600080fd5b506104db60048036038101906104d691906143dd565b611779565b6040516104e8919061453d565b60405180910390f35b3480156104fd57600080fd5b50610518600480360381019061051391906143dd565b6117b0565b6040516105259190614573565b60405180910390f35b34801561053a57600080fd5b506105436117c8565b6040516105509190614573565b60405180910390f35b34801561056557600080fd5b5061056e61186a565b60405161057b9190614573565b60405180910390f35b34801561059057600080fd5b506105ab60048036038101906105a6919061411c565b611908565b6040516105b89190614595565b60405180910390f35b3480156105cd57600080fd5b506105e860048036038101906105e391906142ec565b6119dd565b6040516105f59190614558565b60405180910390f35b34801561060a57600080fd5b50610613611a13565b6040516106209190614573565b60405180910390f35b34801561063557600080fd5b50610650600480360381019061064b919061424b565b611ab5565b005b34801561065e57600080fd5b50610679600480360381019061067491906143dd565b611c6b565b005b34801561068757600080fd5b506106a2600480360381019061069d91906142ec565b61213d565b6040516106af9190614558565b60405180910390f35b3480156106c457600080fd5b506106df60048036038101906106da91906143dd565b612173565b6040516106ec919061453d565b60405180910390f35b34801561070157600080fd5b5061071c600480360381019061071791906141d0565b61218a565b005b34801561072a57600080fd5b50610745600480360381019061074091906143dd565b612202565b60405161075a999897969594939291906145b0565b60405180910390f35b34801561076f57600080fd5b5061078a600480360381019061078591906143dd565b6123ed565b6040516107979190614573565b60405180910390f35b3480156107ac57600080fd5b506107c760048036038101906107c2919061432d565b6126be565b005b3480156107d557600080fd5b506107de612aee565b6040516107eb9190614595565b60405180910390f35b34801561080057600080fd5b50610809612b02565b6040516108169190614573565b60405180910390f35b34801561082b57600080fd5b50610834612ba0565b6040516108419190614595565b60405180910390f35b34801561085657600080fd5b50610871600480360381019061086c9190614145565b612ba6565b60405161087e9190614558565b60405180910390f35b6000806000837bffffffffffffffffffffffffffffffffffffffffffffffffffffffff19167bffffffffffffffffffffffffffffffffffffffffffffffffffffffff1916815260200190815260200160002060009054906101000a900460ff169050919050565b606060068054600181600116156101000203166002900480601f0160208091040260200160405190810160405280929190818152602001828054600181600116156101000203166002900480156109865780601f1061095b57610100808354040283529160200191610986565b820191906000526020600020905b81548152906001019060200180831161096957829003601f168201915b5050505050905090565b600061099b82612c3a565b6109f0576040517f08c379a000000000000000000000000000000000000000000000000000000000815260040180806020018281038252602c815260200180614a09602c913960400191505060405180910390fd5b6004600083815260200190815260200160002060009054906101000a900473ffffffffffffffffffffffffffffffffffffffff169050919050565b6000610a3682611779565b90508073ffffffffffffffffffffffffffffffffffffffff168373ffffffffffffffffffffffffffffffffffffffff161415610abd576040517f08c379a0000000000000000000000000000000000000000000000000000000008152600401808060200182810382526021815260200180614ab96021913960400191505060405180910390fd5b8073ffffffffffffffffffffffffffffffffffffffff16610adc612c57565b73ffffffffffffffffffffffffffffffffffffffff161480610b0b5750610b0a81610b05612c57565b612ba6565b5b610b60576040517f08c379a000000000000000000000000000000000000000000000000000000000815260040180806020018281038252603881526020018061495c6038913960400191505060405180910390fd5b610b6a8383612c5f565b505050565b600080610b7b83612c3a565b905080915050919050565b6000610b926002612d18565b905090565b610ba8610ba2612c57565b82612d2d565b610bfd576040517f08c379a0000000000000000000000000000000000000000000000000000000008152600401808060200182810382526031815260200180614ada6031913960400191505060405180910390fd5b610c08838383612e21565b505050565b600073ffffffffffffffffffffffffffffffffffffffff163373ffffffffffffffffffffffffffffffffffffffff161415610c4757600080fd5b610c5081612c3a565b610c5957600080fd5b6000610c6482611779565b9050600073ffffffffffffffffffffffffffffffffffffffff168173ffffffffffffffffffffffffffffffffffffffff161415610ca057600080fd5b3373ffffffffffffffffffffffffffffffffffffffff168173ffffffffffffffffffffffffffffffffffffffff161415610cd957600080fd5b6000600d60008481526020019081526020016000206040518061012001604052908160008201548152602001600182018054600181600116156101000203166002900480601f016020809104026020016040519081016040528092919081815260200182805460018160011615610100020316600290048015610d9d5780601f10610d7257610100808354040283529160200191610d9d565b820191906000526020600020905b815481529060010190602001808311610d8057829003601f168201915b50505050508152602001600282018054600181600116156101000203166002900480601f016020809104026020016040519081016040528092919081815260200182805460018160011615610100020316600290048015610e3f5780601f10610e1457610100808354040283529160200191610e3f565b820191906000526020600020905b815481529060010190602001808311610e2257829003601f168201915b505050505081526020016003820160009054906101000a900473ffffffffffffffffffffffffffffffffffffffff1673ffffffffffffffffffffffffffffffffffffffff1673ffffffffffffffffffffffffffffffffffffffff1681526020016004820160009054906101000a900473ffffffffffffffffffffffffffffffffffffffff1673ffffffffffffffffffffffffffffffffffffffff1673ffffffffffffffffffffffffffffffffffffffff1681526020016005820160009054906101000a900473ffffffffffffffffffffffffffffffffffffffff1673ffffffffffffffffffffffffffffffffffffffff1673ffffffffffffffffffffffffffffffffffffffff16815260200160068201548152602001600782015481526020016008820160009054906101000a900460ff16151515158152505090508060c00151341015610f8c57600080fd5b806101000151610f9b57600080fd5b610fa6823385612e21565b6000816080015190508073ffffffffffffffffffffffffffffffffffffffff166108fc349081150290604051600060405180830381858888f19350505050158015610ff5573d6000803e3d6000fd5b5081608001518260a0019073ffffffffffffffffffffffffffffffffffffffff16908173ffffffffffffffffffffffffffffffffffffffff168152505033826080019073ffffffffffffffffffffffffffffffffffffffff16908173ffffffffffffffffffffffffffffffffffffffff168152505060018260e001818151019150818152505081600d60008681526020019081526020016000206000820151816000015560208201518160010190805190602001906110b5929190613f03565b5060408201518160020190805190602001906110d2929190613f03565b5060608201518160030160006101000a81548173ffffffffffffffffffffffffffffffffffffffff021916908373ffffffffffffffffffffffffffffffffffffffff16021790555060808201518160040160006101000a81548173ffffffffffffffffffffffffffffffffffffffff021916908373ffffffffffffffffffffffffffffffffffffffff16021790555060a08201518160050160006101000a81548173ffffffffffffffffffffffffffffffffffffffff021916908373ffffffffffffffffffffffffffffffffffffffff16021790555060c0820151816006015560e082015181600701556101008201518160080160006101000a81548160ff02191690831515021790555090505050505050565b600061123982600160008673ffffffffffffffffffffffffffffffffffffffff1673ffffffffffffffffffffffffffffffffffffffff16815260200190815260200160002061306490919063ffffffff16565b905092915050565b61125c8383836040518060200160405280600081525061218a565b505050565b60008061126d83611908565b905080915050919050565b6010818051602081018201805184825260208301602085012081835280955050505050506000915054906101000a900460ff1681565b6000806112c583600261307e90919063ffffffff16565b50905080915050919050565b600073ffffffffffffffffffffffffffffffffffffffff163373ffffffffffffffffffffffffffffffffffffffff16141561130b57600080fd5b61131482612c3a565b61131d57600080fd5b600061132883611779565b90503373ffffffffffffffffffffffffffffffffffffffff168173ffffffffffffffffffffffffffffffffffffffff161461136257600080fd5b6000600d60008581526020019081526020016000206040518061012001604052908160008201548152602001600182018054600181600116156101000203166002900480601f0160208091040260200160405190810160405280929190818152602001828054600181600116156101000203166002900480156114265780601f106113fb57610100808354040283529160200191611426565b820191906000526020600020905b81548152906001019060200180831161140957829003601f168201915b50505050508152602001600282018054600181600116156101000203166002900480601f0160208091040260200160405190810160405280929190818152602001828054600181600116156101000203166002900480156114c85780601f1061149d576101008083540402835291602001916114c8565b820191906000526020600020905b8154815290600101906020018083116114ab57829003601f168201915b505050505081526020016003820160009054906101000a900473ffffffffffffffffffffffffffffffffffffffff1673ffffffffffffffffffffffffffffffffffffffff1673ffffffffffffffffffffffffffffffffffffffff1681526020016004820160009054906101000a900473ffffffffffffffffffffffffffffffffffffffff1673ffffffffffffffffffffffffffffffffffffffff1673ffffffffffffffffffffffffffffffffffffffff1681526020016005820160009054906101000a900473ffffffffffffffffffffffffffffffffffffffff1673ffffffffffffffffffffffffffffffffffffffff1673ffffffffffffffffffffffffffffffffffffffff16815260200160068201548152602001600782015481526020016008820160009054906101000a900460ff1615151515815250509050828160c001818152505080600d6000868152602001908152602001600020600082015181600001556020820151816001019080519060200190611648929190613f03565b506040820151816002019080519060200190611665929190613f03565b5060608201518160030160006101000a81548173ffffffffffffffffffffffffffffffffffffffff021916908373ffffffffffffffffffffffffffffffffffffffff16021790555060808201518160040160006101000a81548173ffffffffffffffffffffffffffffffffffffffff021916908373ffffffffffffffffffffffffffffffffffffffff16021790555060a08201518160050160006101000a81548173ffffffffffffffffffffffffffffffffffffffff021916908373ffffffffffffffffffffffffffffffffffffffff16021790555060c0820151816006015560e082015181600701556101008201518160080160006101000a81548160ff02191690831515021790555090505050505050565b60006117a9826040518060600160405280602981526020016149be6029913960026130aa9092919063ffffffff16565b9050919050565b606060006117bd836123ed565b905080915050919050565b606060098054600181600116156101000203166002900480601f0160208091040260200160405190810160405280929190818152602001828054600181600116156101000203166002900480156118605780601f1061183557610100808354040283529160200191611860565b820191906000526020600020905b81548152906001019060200180831161184357829003601f168201915b5050505050905090565b600b8054600181600116156101000203166002900480601f0160208091040260200160405190810160405280929190818152602001828054600181600116156101000203166002900480156119005780601f106118d557610100808354040283529160200191611900565b820191906000526020600020905b8154815290600101906020018083116118e357829003601f168201915b505050505081565b60008073ffffffffffffffffffffffffffffffffffffffff168273ffffffffffffffffffffffffffffffffffffffff16141561198f576040517f08c379a000000000000000000000000000000000000000000000000000000000815260040180806020018281038252602a815260200180614994602a913960400191505060405180910390fd5b6119d6600160008473ffffffffffffffffffffffffffffffffffffffff1673ffffffffffffffffffffffffffffffffffffffff1681526020019081526020016000206130c9565b9050919050565b600f818051602081018201805184825260208301602085012081835280955050505050506000915054906101000a900460ff1681565b606060078054600181600116156101000203166002900480601f016020809104026020016040519081016040528092919081815260200182805460018160011615610100020316600290048015611aab5780601f10611a8057610100808354040283529160200191611aab565b820191906000526020600020905b815481529060010190602001808311611a8e57829003601f168201915b5050505050905090565b611abd612c57565b73ffffffffffffffffffffffffffffffffffffffff168273ffffffffffffffffffffffffffffffffffffffff161415611b5e576040517f08c379a00000000000000000000000000000000000000000000000000000000081526004018080602001828103825260198152602001807f4552433732313a20617070726f766520746f2063616c6c65720000000000000081525060200191505060405180910390fd5b8060056000611b6b612c57565b73ffffffffffffffffffffffffffffffffffffffff1673ffffffffffffffffffffffffffffffffffffffff16815260200190815260200160002060008473ffffffffffffffffffffffffffffffffffffffff1673ffffffffffffffffffffffffffffffffffffffff16815260200190815260200160002060006101000a81548160ff0219169083151502179055508173ffffffffffffffffffffffffffffffffffffffff16611c18612c57565b73ffffffffffffffffffffffffffffffffffffffff167f17307eab39ab6107e8899845ad3d59bd9653f200f220920489ca2b5937696c318360405180821515815260200191505060405180910390a35050565b600073ffffffffffffffffffffffffffffffffffffffff163373ffffffffffffffffffffffffffffffffffffffff161415611ca557600080fd5b611cae81612c3a565b611cb757600080fd5b6000611cc282611779565b90503373ffffffffffffffffffffffffffffffffffffffff168173ffffffffffffffffffffffffffffffffffffffff1614611cfc57600080fd5b6000600d60008481526020019081526020016000206040518061012001604052908160008201548152602001600182018054600181600116156101000203166002900480601f016020809104026020016040519081016040528092919081815260200182805460018160011615610100020316600290048015611dc05780601f10611d9557610100808354040283529160200191611dc0565b820191906000526020600020905b815481529060010190602001808311611da357829003601f168201915b50505050508152602001600282018054600181600116156101000203166002900480601f016020809104026020016040519081016040528092919081815260200182805460018160011615610100020316600290048015611e625780601f10611e3757610100808354040283529160200191611e62565b820191906000526020600020905b815481529060010190602001808311611e4557829003601f168201915b505050505081526020016003820160009054906101000a900473ffffffffffffffffffffffffffffffffffffffff1673ffffffffffffffffffffffffffffffffffffffff1673ffffffffffffffffffffffffffffffffffffffff1681526020016004820160009054906101000a900473ffffffffffffffffffffffffffffffffffffffff1673ffffffffffffffffffffffffffffffffffffffff1673ffffffffffffffffffffffffffffffffffffffff1681526020016005820160009054906101000a900473ffffffffffffffffffffffffffffffffffffffff1673ffffffffffffffffffffffffffffffffffffffff1673ffffffffffffffffffffffffffffffffffffffff16815260200160068201548152602001600782015481526020016008820160009054906101000a900460ff161515151581525050905080610100015115611fc057600081610100019015159081151581525050611fd3565b6001816101000190151590811515815250505b80600d600085815260200190815260200160002060008201518160000155602082015181600101908051906020019061200d929190613f03565b50604082015181600201908051906020019061202a929190613f03565b5060608201518160030160006101000a81548173ffffffffffffffffffffffffffffffffffffffff021916908373ffffffffffffffffffffffffffffffffffffffff16021790555060808201518160040160006101000a81548173ffffffffffffffffffffffffffffffffffffffff021916908373ffffffffffffffffffffffffffffffffffffffff16021790555060a08201518160050160006101000a81548173ffffffffffffffffffffffffffffffffffffffff021916908373ffffffffffffffffffffffffffffffffffffffff16021790555060c0820151816006015560e082015181600701556101008201518160080160006101000a81548160ff021916908315150217905550905050505050565b600e818051602081018201805184825260208301602085012081835280955050505050506000915054906101000a900460ff1681565b60008061217f83611779565b905080915050919050565b61219b612195612c57565b83612d2d565b6121f0576040517f08c379a0000000000000000000000000000000000000000000000000000000008152600401808060200182810382526031815260200180614ada6031913960400191505060405180910390fd5b6121fc848484846130de565b50505050565b600d602052806000526040600020600091509050806000015490806001018054600181600116156101000203166002900480601f0160208091040260200160405190810160405280929190818152602001828054600181600116156101000203166002900480156122b45780601f10612289576101008083540402835291602001916122b4565b820191906000526020600020905b81548152906001019060200180831161229757829003601f168201915b505050505090806002018054600181600116156101000203166002900480601f0160208091040260200160405190810160405280929190818152602001828054600181600116156101000203166002900480156123525780601f1061232757610100808354040283529160200191612352565b820191906000526020600020905b81548152906001019060200180831161233557829003601f168201915b5050505050908060030160009054906101000a900473ffffffffffffffffffffffffffffffffffffffff16908060040160009054906101000a900473ffffffffffffffffffffffffffffffffffffffff16908060050160009054906101000a900473ffffffffffffffffffffffffffffffffffffffff16908060060154908060070154908060080160009054906101000a900460ff16905089565b60606123f882612c3a565b61244d576040517f08c379a000000000000000000000000000000000000000000000000000000000815260040180806020018281038252602f815260200180614a8a602f913960400191505060405180910390fd5b6000600860008481526020019081526020016000208054600181600116156101000203166002900480601f0160208091040260200160405190810160405280929190818152602001828054600181600116156101000203166002900480156124f65780601f106124cb576101008083540402835291602001916124f6565b820191906000526020600020905b8154815290600101906020018083116124d957829003601f168201915b5050505050905060006125076117c8565b905060008151141561251d5781925050506126b9565b6000825111156125ee5780826040516020018083805190602001908083835b6020831061255f578051825260208201915060208101905060208303925061253c565b6001836020036101000a03801982511681845116808217855250505050505090500182805190602001908083835b602083106125b0578051825260208201915060208101905060208303925061258d565b6001836020036101000a03801982511681845116808217855250505050505090500192505050604051602081830303815290604052925050506126b9565b806125f885613150565b6040516020018083805190602001908083835b6020831061262e578051825260208201915060208101905060208303925061260b565b6001836020036101000a03801982511681845116808217855250505050505090500182805190602001908083835b6020831061267f578051825260208201915060208101905060208303925061265c565b6001836020036101000a03801982511681845116808217855250505050505090500192505050604051602081830303815290604052925050505b919050565b600073ffffffffffffffffffffffffffffffffffffffff163373ffffffffffffffffffffffffffffffffffffffff1614156126f857600080fd5b600c60008154809291906001019190505550612715600c54612c3a565b1561271f57600080fd5b60005b8282905081101561278e57600f83838381811061273b57fe5b905060200281019061274d919061464b565b60405161275b92919061450d565b908152602001604051809103902060009054906101000a900460ff161561278157600080fd5b8080600101915050612722565b5060108460405161279f9190614526565b908152602001604051809103902060009054906101000a900460ff16156127c557600080fd5b600e856040516127d59190614526565b908152602001604051809103902060009054906101000a900460ff16156127fb57600080fd5b61280733600c54613297565b612813600c548561348b565b60005b82829050811015612883576001600f84848481811061283157fe5b9050602002810190612843919061464b565b60405161285192919061450d565b908152602001604051809103902060006101000a81548160ff0219169083151502179055508080600101915050612816565b5060016010856040516128969190614526565b908152602001604051809103902060006101000a81548160ff0219169083151502179055506001600e866040516128cd9190614526565b908152602001604051809103902060006101000a81548160ff0219169083151502179055506000604051806101200160405280600c5481526020018781526020018681526020013373ffffffffffffffffffffffffffffffffffffffff1681526020013373ffffffffffffffffffffffffffffffffffffffff168152602001600073ffffffffffffffffffffffffffffffffffffffff1681526020018581526020016000815260200160011515815250905080600d6000600c5481526020019081526020016000206000820151816000015560208201518160010190805190602001906129bb929190613f03565b5060408201518160020190805190602001906129d8929190613f03565b5060608201518160030160006101000a81548173ffffffffffffffffffffffffffffffffffffffff021916908373ffffffffffffffffffffffffffffffffffffffff16021790555060808201518160040160006101000a81548173ffffffffffffffffffffffffffffffffffffffff021916908373ffffffffffffffffffffffffffffffffffffffff16021790555060a08201518160050160006101000a81548173ffffffffffffffffffffffffffffffffffffffff021916908373ffffffffffffffffffffffffffffffffffffffff16021790555060c0820151816006015560e082015181600701556101008201518160080160006101000a81548160ff021916908315150217905550905050505050505050565b600080612af9610b86565b90508091505090565b600a8054600181600116156101000203166002900480601f016020809104026020016040519081016040528092919081815260200182805460018160011615610100020316600290048015612b985780601f10612b6d57610100808354040283529160200191612b98565b820191906000526020600020905b815481529060010190602001808311612b7b57829003601f168201915b505050505081565b600c5481565b6000600560008473ffffffffffffffffffffffffffffffffffffffff1673ffffffffffffffffffffffffffffffffffffffff16815260200190815260200160002060008373ffffffffffffffffffffffffffffffffffffffff1673ffffffffffffffffffffffffffffffffffffffff16815260200190815260200160002060009054906101000a900460ff16905092915050565b6000612c5082600261351590919063ffffffff16565b9050919050565b600033905090565b816004600083815260200190815260200160002060006101000a81548173ffffffffffffffffffffffffffffffffffffffff021916908373ffffffffffffffffffffffffffffffffffffffff160217905550808273ffffffffffffffffffffffffffffffffffffffff16612cd283611779565b73ffffffffffffffffffffffffffffffffffffffff167f8c5be1e5ebec7d5bd14f71427d1e84f3dd0314c0f7b2291e5b200ac8c7c3b92560405160405180910390a45050565b6000612d268260000161352f565b9050919050565b6000612d3882612c3a565b612d8d576040517f08c379a000000000000000000000000000000000000000000000000000000000815260040180806020018281038252602c815260200180614930602c913960400191505060405180910390fd5b6000612d9883611779565b90508073ffffffffffffffffffffffffffffffffffffffff168473ffffffffffffffffffffffffffffffffffffffff161480612e0757508373ffffffffffffffffffffffffffffffffffffffff16612def84610990565b73ffffffffffffffffffffffffffffffffffffffff16145b80612e185750612e178185612ba6565b5b91505092915050565b8273ffffffffffffffffffffffffffffffffffffffff16612e4182611779565b73ffffffffffffffffffffffffffffffffffffffff1614612ead576040517f08c379a0000000000000000000000000000000000000000000000000000000008152600401808060200182810382526029815260200180614a616029913960400191505060405180910390fd5b600073ffffffffffffffffffffffffffffffffffffffff168273ffffffffffffffffffffffffffffffffffffffff161415612f33576040517f08c379a00000000000000000000000000000000000000000000000000000000081526004018080602001828103825260248152602001806148e66024913960400191505060405180910390fd5b612f3e838383613540565b612f49600082612c5f565b612f9a81600160008673ffffffffffffffffffffffffffffffffffffffff1673ffffffffffffffffffffffffffffffffffffffff16815260200190815260200160002061354590919063ffffffff16565b50612fec81600160008573ffffffffffffffffffffffffffffffffffffffff1673ffffffffffffffffffffffffffffffffffffffff16815260200190815260200160002061355f90919063ffffffff16565b50613003818360026135799092919063ffffffff16565b50808273ffffffffffffffffffffffffffffffffffffffff168473ffffffffffffffffffffffffffffffffffffffff167fddf252ad1be2c89b69c2b068fc378daa952ba7f163c4a11628f55a4df523b3ef60405160405180910390a4505050565b600061307383600001836135ae565b60001c905092915050565b6000806000806130918660000186613631565b915091508160001c8160001c9350935050509250929050565b60006130bd846000018460001b846136ca565b60001c90509392505050565b60006130d7826000016137c0565b9050919050565b6130e9848484612e21565b6130f5848484846137d1565b61314a576040517f08c379a00000000000000000000000000000000000000000000000000000000081526004018080602001828103825260328152602001806148b46032913960400191505060405180910390fd5b50505050565b60606000821415613198576040518060400160405280600181526020017f30000000000000000000000000000000000000000000000000000000000000008152509050613292565b600082905060005b600082146131c2578080600101915050600a82816131ba57fe5b0491506131a0565b60008167ffffffffffffffff811180156131db57600080fd5b506040519080825280601f01601f19166020018201604052801561320e5781602001600182028036833780820191505090505b50905060006001830390508593505b6000841461328a57600a848161322f57fe5b0660300160f81b8282806001900393508151811061324957fe5b60200101907effffffffffffffffffffffffffffffffffffffffffffffffffffffffffffff1916908160001a905350600a848161328257fe5b04935061321d565b819450505050505b919050565b600073ffffffffffffffffffffffffffffffffffffffff168273ffffffffffffffffffffffffffffffffffffffff16141561333a576040517f08c379a00000000000000000000000000000000000000000000000000000000081526004018080602001828103825260208152602001807f4552433732313a206d696e7420746f20746865207a65726f206164647265737381525060200191505060405180910390fd5b61334381612c3a565b156133b6576040517f08c379a000000000000000000000000000000000000000000000000000000000815260040180806020018281038252601c8152602001807f4552433732313a20746f6b656e20616c7265616479206d696e7465640000000081525060200191505060405180910390fd5b6133c260008383613540565b61341381600160008573ffffffffffffffffffffffffffffffffffffffff1673ffffffffffffffffffffffffffffffffffffffff16815260200190815260200160002061355f90919063ffffffff16565b5061342a818360026135799092919063ffffffff16565b50808273ffffffffffffffffffffffffffffffffffffffff16600073ffffffffffffffffffffffffffffffffffffffff167fddf252ad1be2c89b69c2b068fc378daa952ba7f163c4a11628f55a4df523b3ef60405160405180910390a45050565b61349482612c3a565b6134e9576040517f08c379a000000000000000000000000000000000000000000000000000000000815260040180806020018281038252602c815260200180614a35602c913960400191505060405180910390fd5b80600860008481526020019081526020016000209080519060200190613510929190613f03565b505050565b6000613527836000018360001b6139ea565b905092915050565b600081600001805490509050919050565b505050565b6000613557836000018360001b613a0d565b905092915050565b6000613571836000018360001b613af5565b905092915050565b60006135a5846000018460001b8473ffffffffffffffffffffffffffffffffffffffff1660001b613b65565b90509392505050565b60008183600001805490501161360f576040517f08c379a00000000000000000000000000000000000000000000000000000000081526004018080602001828103825260228152602001806148926022913960400191505060405180910390fd5b82600001828154811061361e57fe5b9060005260206000200154905092915050565b60008082846000018054905011613693576040517f08c379a00000000000000000000000000000000000000000000000000000000081526004018080602001828103825260228152602001806149e76022913960400191505060405180910390fd5b60008460000184815481106136a457fe5b906000526020600020906002020190508060000154816001015492509250509250929050565b60008084600101600085815260200190815260200160002054905060008114158390613791576040517f08c379a00000000000000000000000000000000000000000000000000000000081526004018080602001828103825283818151815260200191508051906020019080838360005b8381101561375657808201518184015260208101905061373b565b50505050905090810190601f1680156137835780820380516001836020036101000a031916815260200191505b509250505060405180910390fd5b508460000160018203815481106137a457fe5b9060005260206000209060020201600101549150509392505050565b600081600001805490509050919050565b60006137f28473ffffffffffffffffffffffffffffffffffffffff16613c41565b6137ff57600190506139e2565b600061396963150b7a0260e01b613814612c57565b888787604051602401808573ffffffffffffffffffffffffffffffffffffffff1681526020018473ffffffffffffffffffffffffffffffffffffffff16815260200183815260200180602001828103825283818151815260200191508051906020019080838360005b8381101561389857808201518184015260208101905061387d565b50505050905090810190601f1680156138c55780820380516001836020036101000a031916815260200191505b5095505050505050604051602081830303815290604052907bffffffffffffffffffffffffffffffffffffffffffffffffffffffff19166020820180517bffffffffffffffffffffffffffffffffffffffffffffffffffffffff83818316178352505050506040518060600160405280603281526020016148b4603291398773ffffffffffffffffffffffffffffffffffffffff16613c549092919063ffffffff16565b9050600081806020019051602081101561398257600080fd5b8101908080519060200190929190505050905063150b7a0260e01b7bffffffffffffffffffffffffffffffffffffffffffffffffffffffff1916817bffffffffffffffffffffffffffffffffffffffffffffffffffffffff191614925050505b949350505050565b600080836001016000848152602001908152602001600020541415905092915050565b60008083600101600084815260200190815260200160002054905060008114613ae95760006001820390506000600186600001805490500390506000866000018281548110613a5857fe5b9060005260206000200154905080876000018481548110613a7557fe5b9060005260206000200181905550600183018760010160008381526020019081526020016000208190555086600001805480613aad57fe5b60019003818190600052602060002001600090559055866001016000878152602001908152602001600020600090556001945050505050613aef565b60009150505b92915050565b6000613b018383613c6c565b613b5a578260000182908060018154018082558091505060019003906000526020600020016000909190919091505582600001805490508360010160008481526020019081526020016000208190555060019050613b5f565b600090505b92915050565b6000808460010160008581526020019081526020016000205490506000811415613c0c57846000016040518060400160405280868152602001858152509080600181540180825580915050600190039060005260206000209060020201600090919091909150600082015181600001556020820151816001015550508460000180549050856001016000868152602001908152602001600020819055506001915050613c3a565b82856000016001830381548110613c1f57fe5b90600052602060002090600202016001018190555060009150505b9392505050565b600080823b905060008111915050919050565b6060613c638484600085613c8f565b90509392505050565b600080836001016000848152602001908152602001600020541415905092915050565b606082471015613cea576040517f08c379a000000000000000000000000000000000000000000000000000000000815260040180806020018281038252602681526020018061490a6026913960400191505060405180910390fd5b613cf385613c41565b613d65576040517f08c379a000000000000000000000000000000000000000000000000000000000815260040180806020018281038252601d8152602001807f416464726573733a2063616c6c20746f206e6f6e2d636f6e747261637400000081525060200191505060405180910390fd5b6000808673ffffffffffffffffffffffffffffffffffffffff1685876040518082805190602001908083835b60208310613db45780518252602082019150602081019050602083039250613d91565b6001836020036101000a03801982511681845116808217855250505050505090500191505060006040518083038185875af1925050503d8060008114613e16576040519150601f19603f3d011682016040523d82523d6000602084013e613e1b565b606091505b5091509150613e2b828286613e37565b92505050949350505050565b60608315613e4757829050613efc565b600083511115613e5a5782518084602001fd5b816040517f08c379a00000000000000000000000000000000000000000000000000000000081526004018080602001828103825283818151815260200191508051906020019080838360005b83811015613ec1578082015181840152602081019050613ea6565b50505050905090810190601f168015613eee5780820380516001836020036101000a031916815260200191505b509250505060405180910390fd5b9392505050565b828054600181600116156101000203166002900490600052602060002090601f016020900481019282613f395760008555613f80565b82601f10613f5257805160ff1916838001178555613f80565b82800160010185558215613f80579182015b82811115613f7f578251825591602001919060010190613f64565b5b509050613f8d9190613f91565b5090565b5b80821115613faa576000816000905550600101613f92565b5090565b6000613fc1613fbc846146d3565b6146a2565b905082815260208101848484011115613fd957600080fd5b613fe48482856147e0565b509392505050565b6000613fff613ffa84614703565b6146a2565b90508281526020810184848401111561401757600080fd5b6140228482856147e0565b509392505050565b60008135905061403981614835565b92915050565b60008083601f84011261405157600080fd5b8235905067ffffffffffffffff81111561406a57600080fd5b60208301915083602082028301111561408257600080fd5b9250929050565b6000813590506140988161484c565b92915050565b6000813590506140ad81614863565b92915050565b600082601f8301126140c457600080fd5b81356140d4848260208601613fae565b91505092915050565b600082601f8301126140ee57600080fd5b81356140fe848260208601613fec565b91505092915050565b6000813590506141168161487a565b92915050565b60006020828403121561412e57600080fd5b600061413c8482850161402a565b91505092915050565b6000806040838503121561415857600080fd5b60006141668582860161402a565b92505060206141778582860161402a565b9150509250929050565b60008060006060848603121561419657600080fd5b60006141a48682870161402a565b93505060206141b58682870161402a565b92505060406141c686828701614107565b9150509250925092565b600080600080608085870312156141e657600080fd5b60006141f48782880161402a565b94505060206142058782880161402a565b935050604061421687828801614107565b925050606085013567ffffffffffffffff81111561423357600080fd5b61423f878288016140b3565b91505092959194509250565b6000806040838503121561425e57600080fd5b600061426c8582860161402a565b925050602061427d85828601614089565b9150509250929050565b6000806040838503121561429a57600080fd5b60006142a88582860161402a565b92505060206142b985828601614107565b9150509250929050565b6000602082840312156142d557600080fd5b60006142e38482850161409e565b91505092915050565b6000602082840312156142fe57600080fd5b600082013567ffffffffffffffff81111561431857600080fd5b614324848285016140dd565b91505092915050565b60008060008060006080868803121561434557600080fd5b600086013567ffffffffffffffff81111561435f57600080fd5b61436b888289016140dd565b955050602086013567ffffffffffffffff81111561438857600080fd5b614394888289016140dd565b94505060406143a588828901614107565b935050606086013567ffffffffffffffff8111156143c257600080fd5b6143ce8882890161403f565b92509250509295509295909350565b6000602082840312156143ef57600080fd5b60006143fd84828501614107565b91505092915050565b6000806040838503121561441957600080fd5b600061442785828601614107565b925050602061443885828601614107565b9150509250929050565b61444b8161476c565b82525050565b61445a8161475a565b82525050565b6144698161477e565b82525050565b600061447b838561474f565b93506144888385846147e0565b82840190509392505050565b600061449f82614733565b6144a9818561473e565b93506144b98185602086016147ef565b6144c281614824565b840191505092915050565b60006144d882614733565b6144e2818561474f565b93506144f28185602086016147ef565b80840191505092915050565b614507816147d6565b82525050565b600061451a82848661446f565b91508190509392505050565b600061453282846144cd565b915081905092915050565b60006020820190506145526000830184614451565b92915050565b600060208201905061456d6000830184614460565b92915050565b6000602082019050818103600083015261458d8184614494565b905092915050565b60006020820190506145aa60008301846144fe565b92915050565b6000610120820190506145c6600083018c6144fe565b81810360208301526145d8818b614494565b905081810360408301526145ec818a614494565b90506145fb6060830189614442565b6146086080830188614442565b61461560a0830187614442565b61462260c08301866144fe565b61462f60e08301856144fe565b61463d610100830184614460565b9a9950505050505050505050565b6000808335600160200384360303811261466457600080fd5b80840192508235915067ffffffffffffffff82111561468257600080fd5b60208301925060018202360383131561469a57600080fd5b509250929050565b6000604051905081810181811067ffffffffffffffff821117156146c9576146c8614822565b5b8060405250919050565b600067ffffffffffffffff8211156146ee576146ed614822565b5b601f19601f8301169050602081019050919050565b600067ffffffffffffffff82111561471e5761471d614822565b5b601f19601f8301169050602081019050919050565b600081519050919050565b600082825260208201905092915050565b600081905092915050565b6000614765826147b6565b9050919050565b6000614777826147b6565b9050919050565b60008115159050919050565b60007fffffffff0000000000000000000000000000000000000000000000000000000082169050919050565b600073ffffffffffffffffffffffffffffffffffffffff82169050919050565b6000819050919050565b82818337600083830152505050565b60005b8381101561480d5780820151818401526020810190506147f2565b8381111561481c576000848401525b50505050565bfe5b6000601f19601f8301169050919050565b61483e8161475a565b811461484957600080fd5b50565b6148558161477e565b811461486057600080fd5b50565b61486c8161478a565b811461487757600080fd5b50565b614883816147d6565b811461488e57600080fd5b5056fe456e756d657261626c655365743a20696e646578206f7574206f6620626f756e64734552433732313a207472616e7366657220746f206e6f6e20455243373231526563656976657220696d706c656d656e7465724552433732313a207472616e7366657220746f20746865207a65726f2061646472657373416464726573733a20696e73756666696369656e742062616c616e636520666f722063616c6c4552433732313a206f70657261746f7220717565727920666f72206e6f6e6578697374656e7420746f6b656e4552433732313a20617070726f76652063616c6c6572206973206e6f74206f776e6572206e6f7220617070726f76656420666f7220616c6c4552433732313a2062616c616e636520717565727920666f7220746865207a65726f20616464726573734552433732313a206f776e657220717565727920666f72206e6f6e6578697374656e7420746f6b656e456e756d657261626c654d61703a20696e646578206f7574206f6620626f756e64734552433732313a20617070726f76656420717565727920666f72206e6f6e6578697374656e7420746f6b656e4552433732314d657461646174613a2055524920736574206f66206e6f6e6578697374656e7420746f6b656e4552433732313a207472616e73666572206f6620746f6b656e2074686174206973206e6f74206f776e4552433732314d657461646174613a2055524920717565727920666f72206e6f6e6578697374656e7420746f6b656e4552433732313a20617070726f76616c20746f2063757272656e74206f776e65724552433732313a207472616e736665722063616c6c6572206973206e6f74206f776e6572206e6f7220617070726f766564a2646970667358221220c277f1733aba15bbf843b9a8ea607504c1240ae48f5f326068182ce42e2170b664736f6c63430007060033",
  "immutableReferences": {},
  "source": "// SPDX-License-Identifier: MIT\npragma solidity >=0.4.21 <0.8.0;\npragma abicoder v2;\n\n// import ERC721 iterface\nimport \"./ERC721.sol\";\n\n// nfts smart contract inherits ERC721 interface\ncontract Onidex is ERC721 {\n\n  // this contract's token collection name\n  string public collectionName;\n  // this contract's token symbol\n  string public collectionNameSymbol;\n  // total number of crypto boys minted\n  uint256 public nftCounter;\n\n  // define NFT struct\n   struct NFT {\n    uint256 tokenId;\n    string tokenName;\n    string tokenURI;\n    address payable mintedBy;\n    address payable currentOwner;\n    address payable previousOwner;\n    uint256 price;\n    uint256 numberOfTransfers;\n    bool forSale;\n  }\n\n  // map nft's token id to crypto boy\n  mapping(uint256 => NFT) public allNFTs;\n  // check if token name exists\n  mapping(string => bool) public tokenNameExists;\n  // check if color exists\n  mapping(string => bool) public colorExists;\n  // check if token URI exists\n  mapping(string => bool) public tokenURIExists;\n\n  // initialize contract while deployment with contract's collection name and token\n  constructor() ERC721(\"Onidex Collection\", \"ONI\") {\n    collectionName = name();\n    collectionNameSymbol = symbol();\n  }\n\n  // mint a new crypto boy\n  function mintNFT(string memory _name, string memory _tokenURI, uint256 _price, string[] calldata _colors) external {\n    // check if thic fucntion caller is not an zero address account\n    require(msg.sender != address(0));\n    // increment counter\n    nftCounter ++;\n    // check if a token exists with the above token id => incremented counter\n    require(!_exists(nftCounter));\n\n    // loop through the colors passed and check if each colors already exists or not\n    for(uint i=0; i<_colors.length; i++) {\n      require(!colorExists[_colors[i]]);\n    }\n    // check if the token URI already exists or not\n    require(!tokenURIExists[_tokenURI]);\n    // check if the token name already exists or not\n    require(!tokenNameExists[_name]);\n\n    // mint the token\n    _mint(msg.sender, nftCounter);\n    // set token URI (bind token id with the passed in token URI)\n    _setTokenURI(nftCounter, _tokenURI);\n\n    // loop through the colors passed and make each of the colors as exists since the token is already minted\n    for (uint i=0; i<_colors.length; i++) {\n      colorExists[_colors[i]] = true;\n    }\n    // make passed token URI as exists\n    tokenURIExists[_tokenURI] = true;\n    // make token name passed as exists\n    tokenNameExists[_name] = true;\n\n    // creat a new crypto boy (struct) and pass in new values\n    NFT memory newNFT = NFT(\n    nftCounter,\n    _name,\n    _tokenURI,\n    msg.sender,\n    msg.sender,\n    address(0),\n    _price,\n    0,\n    true);\n    // add the token id and it's crypto boy to all crypto boys mapping\n    allNFTs[nftCounter] = newNFT;\n  }\n\n  // get owner of the token\n  function getTokenOwner(uint256 _tokenId) public view returns(address) {\n    address _tokenOwner = ownerOf(_tokenId);\n    return _tokenOwner;\n  }\n\n  // get metadata of the token\n  function getTokenMetaData(uint _tokenId) public view returns(string memory) {\n    string memory tokenMetaData = tokenURI(_tokenId);\n    return tokenMetaData;\n  }\n\n  // get total number of tokens minted so far\n  function getNumberOfTokensMinted() public view returns(uint256) {\n    uint256 totalNumberOfTokensMinted = totalSupply();\n    return totalNumberOfTokensMinted;\n  }\n\n  // get total number of tokens owned by an address\n  function getTotalNumberOfTokensOwnedByAnAddress(address _owner) public view returns(uint256) {\n    uint256 totalNumberOfTokensOwned = balanceOf(_owner);\n    return totalNumberOfTokensOwned;\n  }\n\n  // check if the token already exists\n  function getTokenExists(uint256 _tokenId) public view returns(bool) {\n    bool tokenExists = _exists(_tokenId);\n    return tokenExists;\n  }\n\n  // by a token by passing in the token's id\n  function buyToken(uint256 _tokenId) public payable {\n    // check if the function caller is not an zero account address\n    require(msg.sender != address(0));\n    // check if the token id of the token being bought exists or not\n    require(_exists(_tokenId));\n    // get the token's owner\n    address tokenOwner = ownerOf(_tokenId);\n    // token's owner should not be an zero address account\n    require(tokenOwner != address(0));\n    // the one who wants to buy the token should not be the token's owner\n    require(tokenOwner != msg.sender);\n    // get that token from all crypto boys mapping and create a memory of it defined as (struct => nft)\n    NFT memory nft = allNFTs[_tokenId];\n    // price sent in to buy should be equal to or more than the token's price\n    require(msg.value >= nft.price);\n    // token should be for sale\n    require(nft.forSale);\n    // transfer the token from owner to the caller of the function (buyer)\n    _transfer(tokenOwner, msg.sender, _tokenId);\n    // get owner of the token\n    address payable sendTo = nft.currentOwner;\n    // send token's worth of ethers to the owner\n    sendTo.transfer(msg.value);\n    // update the token's previous owner\n    nft.previousOwner = nft.currentOwner;\n    // update the token's current owner\n    nft.currentOwner = msg.sender;\n    // update the how many times this token was transfered\n    nft.numberOfTransfers += 1;\n    // set and update that token in the mapping\n    allNFTs[_tokenId] = nft;\n  }\n\n  function changeTokenPrice(uint256 _tokenId, uint256 _newPrice) public {\n    // require caller of the function is not an empty address\n    require(msg.sender != address(0));\n    // require that token should exist\n    require(_exists(_tokenId));\n    // get the token's owner\n    address tokenOwner = ownerOf(_tokenId);\n    // check that token's owner should be equal to the caller of the function\n    require(tokenOwner == msg.sender);\n    // get that token from all crypto boys mapping and create a memory of it defined as (struct => nft)\n    NFT memory nft = allNFTs[_tokenId];\n    // update token's price with new price\n    nft.price = _newPrice;\n    // set and update that token in the mapping\n    allNFTs[_tokenId] = nft;\n  }\n\n  // switch between set for sale and set not for sale\n  function toggleForSale(uint256 _tokenId) public {\n    // require caller of the function is not an empty address\n    require(msg.sender != address(0));\n    // require that token should exist\n    require(_exists(_tokenId));\n    // get the token's owner\n    address tokenOwner = ownerOf(_tokenId);\n    // check that token's owner should be equal to the caller of the function\n    require(tokenOwner == msg.sender);\n    // get that token from all crypto boys mapping and create a memory of it defined as (struct => nft)\n    NFT memory nft = allNFTs[_tokenId];\n    // if token's forSale is false make it true and vice versa\n    if(nft.forSale) {\n      nft.forSale = false;\n    } else {\n      nft.forSale = true;\n    }\n    // set and update that token in the mapping\n    allNFTs[_tokenId] = nft;\n  }\n}",
  "sourcePath": "/home/matifalcone/Blockchain/Ethereum/nft-marketplace/src/contracts/Onidex.sol",
  "compiler": {
    "name": "solc",
    "version": "0.7.6+commit.7338295f.Emscripten.clang"
  },
  "schemaVersion": "3.4.10",
  "updatedAt": "2022-11-07T04:23:35.884Z",
  "networkType": "ethereum",
  "devdoc": {
    "kind": "dev",
    "methods": {
      "approve(address,uint256)": {
        "details": "See {IERC721-approve}."
      },
      "balanceOf(address)": {
        "details": "See {IERC721-balanceOf}."
      },
      "baseURI()": {
        "details": "Returns the base URI set via {_setBaseURI}. This will be automatically added as a prefix in {tokenURI} to each token's URI, or to the token ID if no specific URI is set for that token ID."
      },
      "getApproved(uint256)": {
        "details": "See {IERC721-getApproved}."
      },
      "isApprovedForAll(address,address)": {
        "details": "See {IERC721-isApprovedForAll}."
      },
      "name()": {
        "details": "See {IERC721Metadata-name}."
      },
      "ownerOf(uint256)": {
        "details": "See {IERC721-ownerOf}."
      },
      "safeTransferFrom(address,address,uint256)": {
        "details": "See {IERC721-safeTransferFrom}."
      },
      "safeTransferFrom(address,address,uint256,bytes)": {
        "details": "See {IERC721-safeTransferFrom}."
      },
      "setApprovalForAll(address,bool)": {
        "details": "See {IERC721-setApprovalForAll}."
      },
      "supportsInterface(bytes4)": {
        "details": "See {IERC165-supportsInterface}. Time complexity O(1), guaranteed to always use less than 30 000 gas."
      },
      "symbol()": {
        "details": "See {IERC721Metadata-symbol}."
      },
      "tokenByIndex(uint256)": {
        "details": "See {IERC721Enumerable-tokenByIndex}."
      },
      "tokenOfOwnerByIndex(address,uint256)": {
        "details": "See {IERC721Enumerable-tokenOfOwnerByIndex}."
      },
      "tokenURI(uint256)": {
        "details": "See {IERC721Metadata-tokenURI}."
      },
      "totalSupply()": {
        "details": "See {IERC721Enumerable-totalSupply}."
      },
      "transferFrom(address,address,uint256)": {
        "details": "See {IERC721-transferFrom}."
      }
    },
    "version": 1
  },
  "userdoc": {
    "kind": "user",
    "methods": {},
    "version": 1
  }
}